:1000000000800020BD010000A17A0000597A0000A4
:10001000597A0000597A0000597A0000597A000094
:10002000597A0000597A0000597A0000A17A00003C
:10003000A17A0000597A0000E1960000E5960000E0
:10004000A17A0000A17A0000A17A0000A17A000044
:10005000A17A0000A17A0000A17A0000A17A000034
:10006000A17A0000A17A0000A17A0000A17A000024
:10007000A17A0000A17A0000A17A0000A17A000014
:10008000A17A0000A17A0000A17A0000A17A000004
:10009000A17A0000A17A0000A17A0000A17A0000F4
:1000A0004573000051730000A17A0000A17A00009E
:1000B000A17A0000A17A0000A17A0000A17A0000D4
:1000C000A17A0000A17A0000A17A0000A17A0000C4
:1000D000A17A0000A17A0000A17A0000A17A0000B4
:1000E000A17A0000A17A0000A17A0000A17A0000A4
:1000F000A17A0000A5A00000A17A0000A17A00006A
:10010000A17A0000A17A0000A17A0000A17A000083
:10011000A17A0000A17A0000A17A0000A17A000073
:10012000A17A0000A17A0000A17A0000A17A000063
:10013000A17A0000A17A0000A17A0000A17A000053
:10014000A17A0000A17A0000A17A0000A17A000043
:10015000A17A0000A17A0000A17A0000A17A000033
:10016000A17A00006D830000A17A0000A17A00004E
:10017000A17A0000A17A0000A17A0000A17A000013
:10018000A17A0000A17A0000A17A0000A17A000003
:10019000A17A0000A17A0000A17A0000A17A0000F3
:1001A000A17A0000A17A0000A17A0000A17A0000E3
:1001B000A17A0000A17A0000A17A0000564B4CF20F
:1001C000205210B51A804DF628121A8000BF00BFC9
:1001D00007F06AFC514B4FF010621A60504A9A6067
:1001E000504ADA60504A136813F4807304D14F49BF
:1001F0000B604FF4A85313604D4B1A78110703D5C9
:100200001A7842F008021A704A4B4B492A221A7097
:100210004A4A4B4B8B4204D252F8040F43F8040B6A
:10022000F8E7484B484900228B4202D243F8042B9E
:10023000FAE74649464A002352F8230041F82300D2
:1002400001336F2BF8D1434B434A802103F8011B44
:100250009342FBD1414B3D4A1A60414B8A221A70AE
:10026000A3F5805324225A70A0221A709A7992071B
:10027000FCD59A79D406FCD43A4A937903F00C035E
:10028000082B384BF9D103221A7140225A719A79FE
:100290009006FCD5334A9179324B4906FBD5324A58
:1002A000324911600221516020221A709A7902F0BD
:1002B0000C020C2AFAD12E4B2E4A1A602E4B2F4AD2
:1002C0001A6000225A60072243F8042C2C4AC3F813
:1002D0000C2D62B607F0F0FE144B1B68DA0705D54B
:1002E000284807F03FFD284B284A1A60284B1B7806
:1002F0005B0609D5244C254B22689A4204D121483B
:1003000007F030FD002323600CF074F807F0D2FBF7
:1003100009F0DEFAFEE700BF0E2005403080044001
:10032000823F04000100002B10D0034014D0034092
:1003300002D0074000E00740849AFF1FE822010036
:10034000308CFF1F849AFF1FD8ADFF1F0082FF1F54
:100350000000000000E400E05FE400E008ED00E0E1
:100360000050064000400640448004400000030165
:1003700004800440C010050014E000E0FF76010096
:1003800000002020C69BA6601CE00340A5C3945A31
:1003900000F00740FFFFFFFFFFFFFFFFFFFFFFFF32
:1003A000FFFFFFFFFFFFFFFFFFFFFFFFFFFFFFFF5D
:1003B000FFFFFFFFFFFFFFFFFFFFFFFFFFFFFFFF4D
:1003C000FFFFFFFFFFFFFFFFFFFFFFFFFFFFFFFF3D
:1003D000FFFFFFFFFFFFFFFFFFFFFFFFFFFFFFFF2D
:1003E000FFFFFFFFFFFFFFFFFFFFFFFFFFFFFFFF1D
:1003F000FFFFFFFFFFFFFFFFFFFFFFFFFFFFFFFF0D
:10040000FFFFFFFFFFFFFFFFFFFFFFFFDEF9FFFF23
:1004100010B5054C237833B9044B13B10448AFF33E
:1004200000800123237010BD849AFF1F000000008C
:10043000E4220100084B10B51BB108490848AFF38E
:1004400000800848036803B910BD074B002BFBD0A0
:10045000BDE81040184700BF00000000889AFF1F49
:10046000E4220100849AFF1F0000000010B584B050
:100470000A4C0B4B02930B4A01924FF0FF3300934F
:100480002046094B2022802105F028FF074A084911
:10049000204604B0BDE810400AF0C0BFA09AFF1F7C
:1004A000801A060040420F008C8FFF1F0C8DFF1F2B
:1004B0003563000030B5094C83B001252046009516
:1004C0002B463C22022106F08BF820460221A5761D
:1004D00003B0BDE8304005F053BA00BFA09AFF1F3B
:1004E00070B5CEB2044680E80600D5B2304602218F
:1004F00007F06CFD0221284607F068FD304607F042
:1005000057FDA060284607F053FD0023E0602361FB
:100510006361204670BD00BF30B5044683B00078EB
:1005200007F046FD0546207907F042FDA3689D428D
:10053000E36824D0984231D0A560E060ADB1A0B1AD
:100540002369012B37DD0023236101221E4B6169E2
:100550001B680193019B63615B1A132B32D9312B0A
:100560008CBF002301231BB201E00022134692B28C
:10057000002062F30F0063F31F4003B030BD9842C8
:10058000F3D02369A56085420CBF01224FF0FF32F2
:1005900013442361E060002DE7D0D0E72369A56014
:1005A000854214BF01224FF0FF3213442361E06003
:1005B000002DDAD0C3E7002201332261D5DA4FF0F3
:1005C000FF32C3E70223D2E72CAAFF1F10B504466F
:1005D0000160C8B2022107F0F9FC00234FF0FF319F
:1005E000032261602273A3602361204610BD00BF17
:1005F00010B5044682B0007807F0DAFC63689842D0
:100600001A4B08D01B680093009B60603233A360D4
:10061000002002B010BD1B680193A268019B9A42A2
:1006200009D8217B4A1E032A05D8DFE802F00F0211
:100630000707012818D0002002B010BD0028FAD109
:1006400003F2E243012023612073E2E730B1012885
:10065000F1D1032088422073DBD1ECE722699A4272
:10066000E9D202202073D4E70420F3E72CAAFF1F6D
:10067000704700BF10B5184C636D1868036882B0EE
:10068000DB6947F612219847144B1B680193012040
:10069000019BC4F8003100FA00F200234FF6FF710D
:1006A000024384F8580084F8702084F85A3084F8A3
:1006B00059306366236684F8F83084F8753084F81E
:1006C000743084F8763084F87730C4F8FC30A16652
:1006D000E16602B010BD00BF089BFF1F2CAAFF1FE0
:1006E00010B54FF60F0008F0EDFB044B5B6D18687A
:1006F0000368F8211B68BDE810401847089BFF1FDE
:1007000010B54FF60F2008F0DDFB044B5B6D186849
:100710000368FA211B68BDE810401847089BFF1FBB
:1007200010B54FF60F3008F0CDFB044B5B6D186829
:100730000368FB211B68BDE810401847089BFF1F9A
:1007400010B54FF60F4008F0BDFB044B5B6D186809
:100750000368FC211B68BDE810401847089BFF1F79
:1007600008B5002008F012FC003018BF012008BDB9
:100770002DE9F041E0290C469DF8185008D8013DBC
:10078000EDB20F2D02D849B2002912DBBDE8F0818D
:10079000F729FBD90834E4B2012303FA04F414F076
:1007A000DD0FF3D0436D18680368BDE8F0411B68A6
:1007B00018471F46436D8046186803682943C9B22D
:1007C0001B6816469847D8F854301868036806F036
:1007D0007F011B6804F0EF049847C02CD6D0D8F8EE
:1007E00054301868036807F07F011B68BDE8F041CA
:1007F000184700BF2DE9F0415FFA82F80C0608F1B6
:10080000FF3504F0FE4444F410442D02064605F47E
:10081000706544F00904000482B02C4300F4FE002B
:100820000F46204308F04EFBCDF80080FBB2F2B239
:1008300090210348FFF79CFF02B0BDE8F08100BFA4
:10084000089BFF1F2DE9F0415FFA82F80C0608F1C2
:10085000FF3504F0FE4444F400442D02064605F43E
:10086000706544F00804000482B02C4300F4FE00DC
:100870000F46204308F026FBCDF80080FBB2F2B211
:1008800080210348FFF774FF02B0BDE8F08100BF8C
:10089000089BFF1F2DE9F0415FFA82F80C0608F172
:1008A000FF3504F0FE4444F430442D02064605F4BE
:1008B000706544F00B04000482B02C4300F4FE0089
:1008C0000F46204308F0FEFACDF80080FBB2F2B2EA
:1008D000B0210348FFF74CFF02B0BDE8F08100BF34
:1008E000089BFF1F036810B504460BB1743098478E
:1008F00094F87530803B7F2B00F28580DFE813F0A1
:100900008A008300830083008300830083008300C8
:1009100083008300830083008300830083008300BF
:10092000960083008300830083008300830083009C
:10093000830083008300830083008300830083009F
:100940009A00830083008300830083008300830078
:10095000830083008300830083008300830083007F
:100960009E00830083008300830083008300830054
:10097000830083008300830083008300830083005F
:10098000A200830083008300830083008300830030
:10099000830083008300830083008300830083003F
:1009A000AC00830083008300830083008300830006
:1009B000830083008300830083008300830083001F
:1009C000B0008300830083008300830083008300E2
:1009D00083008300830083008300830083008300FF
:1009E000C4008000D100E10083008300E90083009F
:1009F000ED00F100F500F900FD0083000101840025
:100A0000A36A002B60D110BD236D002BFBD0BDE885
:100A100010401847A368002BF5D094F8772094F87D
:100A2000761094F87400BDE810401847E368002B76
:100A3000F3D1E8E72369002BEFD1E4E76369002BEA
:100A4000EBD1E0E7A369002BDDD094F8761094F8A1
:100A50007400BDE810401847E369002BF5D1D2E7D8
:100A6000226A002ACFD094F8771094F8763094F860
:100A70007400C90101F47E5103F07F031943A1F50D
:100A80000051BDE810401047636A002BBBD0B4F89A
:100A90007610802904F1780028BF8021BDE810403D
:100AA0001847E26A002AAED094F8773094F87600BE
:100AB000DB0103F47E5300F07F001843BDE81040D3
:100AC0001047236B002B9ED094F87600BDE81040B1
:100AD0001847636B002B9AD195E7A36B002B96D137
:100AE00091E7236C002B92D18DE7E36B002B8ED125
:100AF00089E7636C002B8AD185E7A36C002B86D134
:100B000081E7E36C002B82D17DE700BFF8B5436D30
:100B10000446186803681B69984708B90020F8BDA7
:100B200094F80D31626D23F0010384F80D311068E3
:100B300003685B699847C3B2FD2BEFD0626E002A51
:100B400049D001067ED494F85B10F0295FD0F729D4
:100B50005DD0A11881F85B30216E4B1E9A4253D3B1
:100B600094F85B30F02B00F00A82F72B00F007823C
:100B70001A0650D4002284F87520B02A5CD0A02A2E
:100B80005AD0D02A58D0E02A56D0C02A54D00020BB
:100B900084F87400032994F85C0008BF94F85D5051
:100BA00084F8760018BF002500210120B02A84F8BF
:100BB00077506166216684F8F80008D000F2D5818C
:100BC000902A04D0A02A02D0802A00D0002384F8E2
:100BD00059300120F8BD94F8592084F85B3015068F
:100BE0004DD440B20028C0F20E8294F90D01636822
:100BF00040F0010084F80D0103B19847002084F80B
:100C0000590060662066F8BD0132626686E7A11869
:100C100081F87830A0E703F10C02D2B2012AA9D9F9
:100C2000FD2BA7D0EF2B00F2EC8103F0F002802A1D
:100C300084F8752040F0EF8103F00F00013084F854
:100C40007400A7E7A3F1F0010F293FF67CAF012064
:100C500000FA01F111F0810540F0B18111F45F4F0C
:100C60003FF471AF84F8765084F8775084F874506C
:100C700084F87530C4F8FC0084F8F800F8BD02F17F
:100C80000C01CDB2012DACD9FD2AAAD0EF2A00F279
:100C9000578102F0F006802E40F0538140B20028C8
:100CA000A0DB0120C9B2814284F85B2084F85C306B
:100CB00060669AD9FD2A98D0EF2A94BF02F0F00519
:100CC0001546A5F180037F2B8FD801A151F823F0A1
:100CD000390F0000EB0B0000EB0B0000EB0B0000EA
:100CE000EB0B0000EB0B0000EB0B0000EB0B00002C
:100CF000EB0B0000EB0B0000EB0B0000EB0B00001C
:100D0000EB0B0000EB0B0000EB0B0000EB0B00000B
:100D1000390F0000EB0B0000EB0B0000EB0B0000A9
:100D2000EB0B0000EB0B0000EB0B0000EB0B0000EB
:100D3000EB0B0000EB0B0000EB0B0000EB0B0000DB
:100D4000EB0B0000EB0B0000EB0B0000EB0B0000CB
:100D5000390F0000EB0B0000EB0B0000EB0B000069
:100D6000EB0B0000EB0B0000EB0B0000EB0B0000AB
:100D7000EB0B0000EB0B0000EB0B0000EB0B00009B
:100D8000EB0B0000EB0B0000EB0B0000EB0B00008B
:100D9000390F0000EB0B0000EB0B0000EB0B000029
:100DA000EB0B0000EB0B0000EB0B0000EB0B00006B
:100DB000EB0B0000EB0B0000EB0B0000EB0B00005B
:100DC000EB0B0000EB0B0000EB0B0000EB0B00004B
:100DD000310F0000EB0B0000EB0B0000EB0B0000F1
:100DE000EB0B0000EB0B0000EB0B0000EB0B00002B
:100DF000EB0B0000EB0B0000EB0B0000EB0B00001B
:100E0000EB0B0000EB0B0000EB0B0000EB0B00000A
:100E1000310F0000EB0B0000EB0B0000EB0B0000B0
:100E2000EB0B0000EB0B0000EB0B0000EB0B0000EA
:100E3000EB0B0000EB0B0000EB0B0000EB0B0000DA
:100E4000EB0B0000EB0B0000EB0B0000EB0B0000CA
:100E5000390F0000EB0B0000EB0B0000EB0B000068
:100E6000EB0B0000EB0B0000EB0B0000EB0B0000AA
:100E7000EB0B0000EB0B0000EB0B0000EB0B00009A
:100E8000EB0B0000EB0B0000EB0B0000EB0B00008A
:100E9000EF0E0000310F0000390F0000310F00008D
:100EA000EB0B0000EB0B0000D10E0000EF0E00007A
:100EB000D10E0000D10E0000D10E0000D10E0000B6
:100EC000D10E0000EB0B0000D10E0000D10E00008F
:100ED0000023012084F8743084F8763084F8773069
:100EE00084F875506366236684F8F800F8BD8021A5
:100EF0000023216684F8785084F859307F21636E8E
:100F00008B422ED302F00F020023013294F85C10C2
:100F100084F87420012084F8761084F8773084F8FF
:100F2000755063662366C4F8FC0084F8F800F8BDC9
:100F3000022323660121E2E7032323660221DEE781
:100F4000164606F0DF05902D3FF4A8AE06F0BF056B
:100F5000A02D3FF4A3AE06F0EF06C02E3FF49EAEE8
:100F60003FE6013363660020F8BDD02A3FF42FAE80
:100F7000E02A3FF42CAEC02A7FF428AE27E6F02208
:100F800080230025012194F8F76084F8752084F807
:100F9000763084F8F720C4F8FC30204684F8775087
:100FA00084F8745084F8F810FFF79CFCF7220223B1
:100FB00084F8796084F8782028466366F8BD94F850
:100FC0007810F02902D0F7297FF40FAE551C224487
:100FD00000214FEA152E82F878300126F02784F898
:100FE000765084F877E084F8741084F8591030460D
:100FF000C4F8FC5084F875706166216684F8F86066
:10100000F8BD1A46B7E503F10C02D2B2012A7FF609
:10101000ECAD1A4650E6902A3FF40EAEADE500BFA7
:1010200090F87030DA0718D513F0FE0F15D070B5B0
:1010300090F8755085F08002602A82B004460DD881
:1010400090F874608E4231D081B35B08012B32D0AE
:10105000032B00F09B8002B070BD7047A5F1F00338
:101060000F2BF8D801A252F823F000BF6311000043
:10107000411100000F110000F31000005710000094
:1010800057100000CB10000057100000CB100000DC
:1010900057100000CB100000CB100000CB10000058
:1010A00057100000CB100000CB1000005B08012B94
:1010B00001D0022BCFD194F8773094F876200096A7
:1010C00029462046FFF754FBC5E705F10803DBB2CC
:1010D000072BC0D8012202FA03F313F0DD0FBAD0B8
:1010E000636D1868036829461B6802B0BDE870404C
:1010F0001847436D90F8765018680368F3211B6811
:101100009847636D186805F07F010368ECE7436D4D
:1011100090F87750186894F876200368F2211B68DD
:1011200042EAC5159847636D1868036805F07F01AA
:101130001B689847636D1868C5F3C6110368D3E749
:10114000436D90F87650186894F8773002682D0156
:1011500003F00F03126805F07005F1211D4390475D
:10116000BEE7B0F87660802E28BF802600F17805B3
:10117000002E3FF470AF2E44636D15F8011B186804
:1011800003681B689847B542F6D164E794F8773056
:1011900094F8762000962946FFF7EAFA5BE700BF4D
:1011A00070B5174C94F85860102E02D900252846C7
:1011B00070BD2046FFF7AAFC05460028F6D094F83B
:1011C0007530902B0CD083F08003602B0BD90C482A
:1011D000FFF788FB31460A48FFF722FF284670BD1B
:1011E00094F877303BB194F874309E42EFD0002EE3
:1011F000EDD00025EEE7802384F87530F3E700BFDB
:10120000089BFF1FF8B5294C294F94F87030DFF880
:10121000ACE0C7F800E00025012243F0010362F3CF
:1012200047034FF6FF76294604F17800802284F8C0
:101230007030676525606560A560E5602561656162
:10124000A561E56125626562A562E5622563656366
:10125000A563E56325646564A564E564256584F894
:10126000585084F8595084F85A5025666566A66629
:10127000E66684F8745084F8755084F8765084F8E3
:10128000775084F8F8500BF0BFFB2046C4F80051AB
:10129000C4F80451C4F8085184F80C5184F80D5175
:1012A000044A0549BDE8F8400AF0B8B8089BFF1F9A
:1012B000049BFF1F0C8DFF1F710600005491FF1F40
:1012C00000207047704700BF10B5044604F030FAA4
:1012D0000A2830D00D283DD04FF6FD73984201D931
:1012E000012010BD0346B4F94220B4F9401004F1C6
:1012F000080004F001FA94F82230032BF0D8DFE85C
:1013000003F0140E0802B4F84230181AA4F8420090
:10131000E6E7B4F84030181AA4F84000E0E7B4F863
:1013200042301844A4F84200DAE7B4F840301844D8
:10133000A4F84000D4E794F9333094F93410B4F8A9
:1013400042205B1A13440022A4F84230A4F8402043
:10135000012010BD0023A4F84030012010BD00BFC3
:1013600010B518380AF0A2FD09490A4C0AF0F2FD3E
:1013700008F078FF0AF0B4FF01212060172006F082
:1013800011FE21682820BDE8104006F0FDBC00BF1A
:1013900090759242A49CFF1F10B50E490E4C00237D
:1013A00003EB430004EB400201331279D2091CBF66
:1013B00014F8102002F00F02082B0A6001F104015A
:1013C000EED1FFF7BDF9FFF79BF9044B00221A702D
:1013D00010BD00BFC4A1FF1F348FFF1F648FFF1F0C
:1013E0002DE9F0471546002A63D004460F46DFF882
:1013F000C88000264FF6FD7900F1080A0BE004F0E2
:1014000097F90A2825D00D2832D0484511D9012056
:10141000013D06440AD0236817F8011B1B684345A9
:101420002046ECD09847013D0644F4D13046BDE853
:10143000F0870346B4F94220B4F94010504604F056
:101440005BF994F82230032BE1D8DFE803F02B247A
:101450001D1694F9333094F93410B4F842205B1A15
:1014600013440022A4F84230A4F840200120CFE722
:101470000023A4F840300120CAE7B4F84230181A1B
:10148000A4F842000120C3E7B4F84030181AA4F8C9
:1014900040000120BCE7B4F842301844A4F84200F0
:1014A0000120B5E7B4F840301844A4F8400001200A
:1014B000AEE71646BAE700BFC912000070B5084D86
:1014C0002B689842044608D3064EE41AFFF708F941
:1014D00033685B009C422B60F7D21B1B2B6070BDF6
:1014E00094A3FF1F44A2FF1F70B50D4D2B689842B7
:1014F000044612D30B4E32682A60E41A06F06CFDE3
:101500000146094803F0B4F906F066FD01460748B4
:1015100003F0FAF92B68A342EDD91B1B2B6070BDB9
:1015200078A4FF1F44A2FF1FA4A7FF1FA4A4FF1FAE
:10153000F8B504460A4E0B4D0B4F55F820000A46ED
:1015400056F82410FFF7A6F90849094A56F824303E
:1015500055F8240047F8243008601360F8BD00BF38
:1015600084A4FF1F408DFF1F749CFF1F5C9CFF1F06
:101570008C9CFF1F2DE9F84F584C594F594D5A4E2E
:10158000DFF8A0A1DFF8A091DFF8A08122204FF0C2
:10159000000BC0B206F0C2F8034601462068336073
:1015A00003F0A8FE2168DAF80000CA6AD9F8003012
:1015B000904260DC9342D4BFC0EB0302C0EB020256
:1015C0001B1AB3F5804FAABF9203C2EB82320133DC
:1015D00092FBF3F391F834203360DB1148F82B30A1
:1015E000002A3CD0414A1278032A38D8DFE802F0BA
:1015F0002F02022F3E4A1278002A40D13D4A12782B
:10160000002A5BD03C493D483D4AC1F800B0BBF1DF
:10161000040F2968016013605DD03A4A3A491268A4
:101620003A4851F8221001EB021100EBC101594474
:10163000CB7002EB4202364B13F81210090901314C
:101640005846FFF775FF334B01221A7007E0324B03
:1016500058461968FFF76CFF2E4B01221A700BF1E8
:10166000010BBBF1050F04F1040405F1040504D0DE
:1016700057F8040F8DE70022A2E7BDE8F88F274A4C
:101680001278B2B11C491D481D4AC1F800B0BBF127
:10169000040F2968016013601DD01A4A204912689E
:1016A00009681A4801EB021100EBC1015944CB70E3
:1016B000BFE7104A1278002AD1D0A3E7114B144A91
:1016C0001B6803EB4303584612F813100909013154
:1016D000FFF72EFFC3E70B4B1A68AAE7909CFF1F8A
:1016E000FCD10000408DFF1F589CFF1FB0A0FF1FC2
:1016F0008A9CFF1FB1A0FF1F3CA2FF1F5C9CFF1F25
:101700008C9CFF1F9CA4FF1FC4A1FF1FB09CFF1F48
:10171000348FFF1F40A2FF1F3C8DFF1F549CFF1FF3
:10172000BCA3FF1FE8A1FF1F5C8DFF1F84A4FF1F48
:1017300008B50A4B1A783AB91146094803F0D4FBA8
:10174000084B01221A7008BD074A0548002103F022
:10175000CBFB044B01221A7008BD00BF98A3FF1FEA
:10176000189CFF1F4AA4FF1F4040BF002DE9F04F07
:10177000AE4BAF4C196883B0054608460AF0E2FA52
:101780000AF0D4FDAB49AC4A0B680093009B166885
:1017900020609B1B984208D8A848096803780191EB
:1017A0000199116083F001030370A54B1B781BB1F5
:1017B000A24B1B78002B71D1A24C2378002B4ED169
:1017C000A14B1B78002B53D09C4B1B78002B57D17F
:1017D0009E4B1B78012B00F08181022B58D00022F8
:1017E00011469B4803F080FB6F00DFF89C92DFF806
:1017F0009C827B1909EB43035B79D9074CBF954B5E
:10180000954B53F82530C8F800302378002B5AD078
:10181000924B1B78002B56D03D4409EB450901241F
:101820000CE03368A34200F0D1802B680B33A34255
:101830003BD003F059FB01341B2C3ED099F800300B
:10184000874D884E824803F00F030B33A3424FF0BD
:101850000002A1B2E5DA0022A1B27D48E9E7774BA8
:101860001B78002B40F04081774B1B78002BAFD1C9
:101870007D4B1B78002BABD0704B1B78002BA7D077
:10188000754B734853F82520002103F02DFBABE77F
:101890004D2200216E4803F027FBA5E7012200211D
:1018A0006B48684C03F020FB9EE7A1B26F4A684882
:1018B000013403F019FB1B2CC0D16D4B01221A70AF
:1018C00003B0BDE8F08F684B1B78002B40F082809E
:1018D0007E1909EB46064FF0020B01240AE00022B4
:1018E000A1B25B4803F000FBBBF11B0F29D0013410
:1018F0000BF1010B337803F00F030B33A342EEDB44
:10190000012C00F0F880022C00F00181EB1CA342B6
:10191000E5D11FFA84FAD8F800204D48514603F06B
:10192000E3FA494A1278002ADED0444A1278002AA3
:10193000DAD051460022464803F0D6FABBF11B0F1D
:10194000D5D12F44404E09EB47094FF00B0B002433
:1019500019E0A34200F0B680464B04EB051203EBFE
:10196000C2039B78C3F30113012B00F0A480424A09
:101970003748594603F0B8FA01340BF1010B102C2B
:101980001FFA8BFB99D099F8003003F00F03013355
:10199000A342F1DD3378002B7AD1384BA20753F8FC
:1019A0002530D6D0A34279D0324B04EB051203EB9D
:1019B000C2039B78C3F30113012B7CD03278002A39
:1019C000DAD15946224803F08FFAD5E72C4A03F0C2
:1019D0008BFA30E73D4409EB4509012412E00B681E
:1019E0001B4852F823300B33A3424FF00002A1B240
:1019F00016D02B68A34201D003F076FA01341B2CD9
:101A00003FF45BAF99F800301E491C4A154D03F0B6
:101A10000F030B33A342E2DA0022A1B20C48EBE73A
:101A20004FF4000203F060FAE8E700BF88A3FF1F4D
:101A3000609CFF1F2CAAFF1FECA1FF1FA0A4FF1F8B
:101A4000309CFF1F8A9CFF1FA89CFF1FB0A0FF1F98
:101A5000189CFF1F10D2000030D20000549CFF1FC2
:101A6000BCA3FF1F5CA2FF1FB1A0FF1F0080FF00EF
:101A70004AA4FF1FB09CFF1F20202000C4A1FF1F0D
:101A8000808080009CA4FF1F348FFF1F90A3FF1F46
:101A9000284A2948594603F027FA7EE7274B1A7847
:101AA000AAB9274B04EB051103EBC1039B78C3F3E1
:101AB0000113012B85D1D8F800201F48594603F0A7
:101AC00013FA59E71D4B1B78002B3FF445AF4FF439
:101AD00000025946184803F007FA4DE7194A16481C
:101AE000002103F001FA7FE644F64D42002112483E
:101AF00003F0FAF978E6144B5B7813B1134B1B78BB
:101B000093B9134A0C48012103F0EEF9EFE60E4BAE
:101B10009B7813B10D4B1B7833B94FF680720221BD
:101B2000054803F0E1F9E2E600222146024803F00D
:101B3000DBF9DCE620202000189CFF1F309CFF1FF3
:101B4000B09CFF1F80808000349CFF1FA0A4FF1F5B
:101B5000FFFF800010B550B904460121094803F089
:101B6000E3FD21460748BDE8104003F0DFBD00213A
:101B7000044803F0D9FD01210248BDE8104003F0FC
:101B8000D5BD00BFFCA1FF1F2DE9F04145002B187A
:101B90005B005B4C5B4EE25C56F8207002F00F027B
:101BA0000132974223442FDB1979C90968D15B7848
:101BB00003F00F0346F820302F1804EB47070646C2
:101BC000FB78B87803F00F0200F00F01914271D05A
:101BD0007A79591C6FF3410261F303037A71FB7048
:101BE0000AF064FFAB195B00E218E35CD17803F004
:101BF0000F03013390FBF3F404FB1300013060F397
:101C00000711D170BDE8F0815979C1F34001B9B134
:101C10005B784FEA131E03F00F039E45F4460CDD7C
:101C200077450ADB2A1804EB42021279D209C1D0A7
:101C30000CF1FF3346F82030BEE7BEF1000F2FD085
:101C40002B1804EB430393F804E05FEADE1E15D083
:101C5000002F18DB91B15A7802F00F018F420BDA96
:101C60002B1804EB430393F801C04FEA1C1C0CF142
:101C7000FF3346F820309FE712092ED0BDE8F081EF
:101C80005979C1F340010029EAD12B1804EB430331
:101C90005B7803F00F03D21A013A46F820208BE755
:101CA00005EB000E04EB4E0E9EF803E0B7EB1E1F93
:101CB000B8DAC5E75FEA101815D1AB1904EB430396
:101CC0005A796FF341025A71AB1904EB43030121B6
:101CD000DA7861F30302DA7082E7DB78B7EB131F7F
:101CE000BEDABDE8F0810AF0E1FE90FBF8F303FBF9
:101CF00018000028E1D17B7943F002037B71E3E710
:101D0000348FFF1FC4A1FF1F70B50C4D0C4E002473
:101D100004EB440306EB430320461B79DB092B68E5
:101D20000ABF204603F1FF33013301342B60FFF774
:101D30002BFF082C05F10405EAD170BDC4A1FF1FDB
:101D4000348FFF1F0A4A00EB400102EB41020949B0
:101D50001279D20951F8202004D1013241F8202013
:101D6000FFF712BF013A41F82020FFF70DBF00BF77
:101D7000348FFF1FC4A1FF1F144A38B5144B1468D9
:101D800053F8203004EB440403EB84047F2C054615
:101D90000AD9A9B20F4A104803F0A6F80F49104A11
:101DA00001230B70137038BD0E480F4A0F4B04709F
:101DB000126843F825402046FEF71CFDA4F11803E5
:101DC000352BE6D82046FFF7CBFAE2E798A4FF1FB1
:101DD0003CD0000080808000189CFF1F4AA4FF1F99
:101DE00040A2FF1F99A3FF1F3C8DFF1FE48DFF1F23
:101DF0000D4B10B5044653F820007F2808D80B4B34
:101E000000211A68FEF71EFD0021172006F0CAF80F
:101E1000A1B20022064803F067F80649064A0123EA
:101E20000B70137010BD00BFE48DFF1F3C8DFF1FB2
:101E3000189CFF1F4AA4FF1F40A2FF1FF8B51E4CAD
:101E40001E4B246853F8203004EB440403EB840455
:101E50007F2C05460AD9A9B2194A1A4803F044F85A
:101E600019491A4A01230B701370F8BD184FDFF897
:101E700074E03B681748184E03EB430306EB021669
:101E80001EF8133050F822E01A090132204606F8F5
:101E90000E40FEF7AFFC3B681049114ACB5C42F89C
:101EA0002540002BD7D0A4F11803352BD3D82046DA
:101EB000FFF756FACFE700BF98A4FF1F3CD0000001
:101EC00080808000189CFF1F4AA4FF1F40A2FF1FB4
:101ED0009CA4FF1FC4A1FF1F44A1FF1F1C8FFF1F55
:101EE000E48DFF1F348FFF1F38B5134B044653F8A2
:101EF00020007F280AD9A1B20022104802F0F4FF86
:101F00000F49104A01230B70137038BD0E4D0F4A54
:101F10002B6803EB4303002112F81320120901324E
:101F2000FEF790FC2B680A4AD35C002BE3D000211B
:101F3000172006F037F8DEE7E48DFF1F189CFF1F1F
:101F40004AA4FF1F40A2FF1F9CA4FF1F348FFF1F46
:101F50001C8FFF1F2DE9F04F674F684E57F8202068
:101F60000501AB1806EBC30385B09B78C3F30113DF
:101F7000012B06D002D30F2347F8203005B0BDE86F
:101F8000F08F5F4B5F491B68DFF89CB111F803A02D
:101F9000DFF8989102EB031206EBC2020446537875
:101FA00003F07F034FEA4008CBF8003006F014F846
:101FB00057F82410544B554A1B68CDF800A029440B
:101FC00006EBC10E16F831109EF802C00CF00F0C93
:101FD0000CFB033308EB040E4FEA4E0E184410605E
:101FE00019F80EC0136803934FEA1C1209EB0E0395
:101FF00002934748039B01F07F01013202F01AFC73
:10200000029B1B7913F0700F03D057F82430DB07C5
:1020100064D505F0E1FF3F49086057F824300968AE
:10202000DBF800200091A0444FEA4808E91819F8AD
:10203000083016F83110CDF804A01B09013301F067
:102040007F013548DFF8E8A002F03EFC57F8242075
:102050000294C1444FF00008AB1806EBC30343449D
:10206000DFF8D0B093F903402C48002C21461EDB4A
:1020700099F8002050F8280012090132FEF70AFCF6
:10208000029BCAF8004057F8232008F10108B8F174
:10209000040F0AF1040ADFD1AB18214916F83330D6
:1020A0000D44C3F30603AB5405B0BDE8F08F5BF8F5
:1020B0002810DAF8003019488B42E6D099F8002051
:1020C00050F8280012090132FEF7E4FB029A5BF88F
:1020D000283057F82220CAF80030D6E705F07CFFF8
:1020E000104B029A1B6812790A49C2F302125B086C
:1020F00002FB0300086090E7C4A1FF1FB09CFF1F14
:102100009CA4FF1F1C8FFF1F44A4FF1F3CA1FF1FA7
:10211000A4A7FF1F60A4FF1FA4A4FF1F408DFF1FE3
:1021200044A1FF1F44A2FF1F308FFF1F348FFF1FEA
:1021300048A2FF1F749CFF1F2DE9F84F664B1B78C8
:10214000012B62D0022B5ED1644B1B78002B67D031
:10215000634FDFF8B0A1002443E0624A624B10688D
:1021600004EB440203EB420807EB050B98F804204C
:10217000CBF8086002F00F0909F094FE5B4B53F8AE
:10218000291009F0E7FE8146304609F08BFE014632
:10219000484609F0D7FD0AF0C9F898F80530CBF8A1
:1021A0000400DB0713D4524A524B52F824200F325A
:1021B0001340002BC0F283804F4A2A443D44D15C37
:1021C000AB8109B10021D1542046FFF7C3FE4B4B30
:1021D0001B68A3426FD02046FFF7B4FD0134082CE2
:1021E0001CD0250107EB050B05F0F6FEDBF80460BB
:1021F000B042F3D39AF80030002BAED0FFF7CCF802
:10220000DBF80460A9E7BDE8F88F344B1B783BB1DD
:1022100005F0E2FE3A4B1B68984207D2BDE8F88F02
:10222000364B1868BDE8F84FFFF7A0BA354B1B785E
:10223000002B49D1314D2E4B2C682E4A53F82430B7
:102240000F331A40002A42DB2B49254F2301194442
:10225000FE18885CB28108B1002088542149224AC6
:102260000868DFF8889004EB440102EB41021F4448
:102270001679D7F80480C7F8088006F00F0609F031
:1022800011FE59F8261009F065FE0646404609F091
:1022900009FE0146304609F055FD0AF047F878601E
:1022A0002046FFF757FE2868FFF760FA2868BDE868
:1022B000F84FFFF729BD2046FFF758FA8BE7013B9F
:1022C00063F00F03013377E7FFF766F8B2E7013AEF
:1022D00062F00F020132B7E7B0A0FF1F309CFF1F72
:1022E000C4A3FF1F44A4FF1F348FFF1F6C8EFF1F6A
:1022F000C4A1FF1F0F00008044A1FF1F9CA4FF1F6B
:102300007CA4FF1F648FFF1F38B50A4B0A4D0122C2
:102310001A70002405F060FE05EB04130134082C4C
:102320005860F7D1054B1B7803B138BDBDE8384084
:10233000FEF7F6B9309CFF1FC4A3FF1F648FFF1F79
:1023400007283AD8F8B500EB40021C4B1C4C04EBB4
:10235000C01013F8124004F00F0401346E46A6EBCF
:10236000C403214400AF9D466D4691FBF4F3002267
:1023700004FB131300EBC20105EBC30ED1F800C040
:1023800045F833C001324968CEF804100133944255
:1023900093FBF4F104FB1133ECDC0023DA00A91801
:1023A0000244D1F800E040F833E00133496851605D
:1023B0009C42F3DCB546BD46F8BD7047348FFF1F25
:1023C000B09CFF1F2DE9F0473A4FBDF8206005464D
:1023D0008946384629469246984603F0F5F997F91A
:1023E000314080B2A4B2C0EB0803341B03EBD373BB
:1023F00004EBD47409EB63030AEB6404002228465F
:10240000A7F84030A7F8424087F846200AF098FB2A
:1024100048B304463E464FF6FD7801E0013C22D029
:1024200015F8011B234803F083F90A282FD00D2843
:102430003BD04045F2D80346B6F94220B6F94010E9
:102440001D4803F059F996F82230032BE6D8DFE84F
:1024500003F018120C02B7F84230013CA3EB000065
:10246000A7F84200DCD1BDE8F087B7F84030181A71
:10247000A7F84000D2E7B7F842301844A7F8420066
:10248000CCE7B7F840301844A7F84000C6E796F903
:10249000333096F93410B6F842205B1A1344002208
:1024A000A6F84230A6F84020B8E70023A6F840304E
:1024B000B4E700BFF4A1FF1FFCA1FF1F30B5054624
:1024C00083B010460C46FFF745FB074B1A680332F2
:1024D000610116235200009309B2284612B220234C
:1024E000FFF770FF03B030BD988EFF1FF0B5194C99
:1024F000194F1A4E85B004F1400502E00834AC4291
:1025000026D02379002BF9D03B680393039B144812
:10251000336004F03BFA0121124803F0EBF8124952
:10252000104803F0F7F801210E4803F0FDF80021F0
:102530000C4803F0FBF82023206800930A22802334
:102540000021FFF73FFF002323710834AC42D8D1AC
:1025500005B0F0BD888DFF1F2CAAFF1F509CFF1FE8
:10256000A09AFF1FFCA1FF1F50D3000030B51E4CE6
:1025700083B0012104F1080003F0BCF804F1080065
:102580001A4903F0C7F8002504F108000121A4F856
:102590004050A4F8425084F8465003F0C5F829464C
:1025A00004F1080003F0C2F8114A124B12781B78AC
:1025B000934210D0104B1B784BB910482023009346
:1025C00014222C235621FFF7FDFE03B030BD0C4B27
:1025D00053F82200F2E7084A1278002AEDD0084AA0
:1025E00052F82300EAE700BFF4A1FF1F9C05010099
:1025F000889CFF1FB0A0FF1F60A2FF1F28D1000012
:10260000C88DFF1F70B5064684B010460D46FFF713
:10261000A1FA0A4B1C68640002A930460A2205345C
:1026200009F028FFA4B269011623009322B209B26F
:1026300002A82023FFF7C6FE04B070BD988EFF1FCE
:10264000F8B5134E074600257088002498B123047E
:10265000FF2293FBF0F02844114680B202F06EFC9A
:1026600002F010FDA1B20246094802F03DFC70885C
:102670000134A042EBDC064802F056FB05F58075FC
:10268000384605F0CBFCB5F5803FDDD1F8BD00BF85
:10269000189CFF1F2DE9F047494BDFF83C81494E5C
:1026A0000FCB86B006AC04E90F00474804F06EF982
:1026B000002108F1080003F01DF845464FF0000A1C
:1026C0004148424C04F062F912230022404941483B
:1026D000A8F84030A8F8423088F846200FFA8AF966
:1026E00003F018F84FF6FD7701E0B44222D014F859
:1026F000011B394803F01CF80A284FD00D285BD085
:10270000B842F2D80346B5F94220B5F94010314835
:1027100002F0F2FF95F82230032BE6D8DFE803F051
:1027200038322C02B8F84230B442A3EB0000A8F8CB
:102730004200DCD12949274802F0ECFF09F00309E7
:1027400006AB03EB8909202359F8100C00930A22E9
:102750005021FFF737FE1C4804F024FA0AF1010A61
:10276000642005F05BFCBAF1100FA9D1642006B01B
:10277000BDE8F04705F052BCB8F84030181AA8F888
:102780004000B2E7B8F842301844A8F84200ACE77D
:10279000B8F840301844A8F84000A6E795F933305F
:1027A00095F93410B5F842205B1A13440022A5F8BD
:1027B0004230A5F8402098E70023A5F8403094E780
:1027C0000CD00000AED00000A09AFF1FA8D00000DF
:1027D00050D30000FCA1FF1FF4A1FF1F0CDC000080
:1027E0002DE9F0432F4B304C596818682F4F85B0B6
:1027F0006A4603C253F8080F5968134603C30DF124
:10280000FF3E00264FF001084FF0030C1EF8015F59
:10281000002305F07F059DF8082065F306028DF87A
:10282000082002AA03CA04EBC30244F833000133B0
:10283000102B5160EFD106EB460107EB410317F86F
:10284000112042F00F0266F3071207F8112093F8E7
:102850000590DA781D79587899786FF3000968F354
:1028600003025FFA89F905F07F0500F0F00001F03E
:10287000F00101366FF306156FF307106FF30711C0
:102880006CF307126FF34109082E04F180041D71E7
:1028900058709970DA7083F80590B7D105B0BDE82B
:1028A000F08300BF1CD00000B09CFF1F348FFF1FBF
:1028B00070B5002005F016F8052803D0052100208A
:1028C00005F02AF81A4B01201C7805F00BF8844219
:1028D00003D02146012005F01FF8164B02201C787A
:1028E00005F000F8844203D02146022005F014F8D8
:1028F000114B03201C6804F0F5FF013CE4B2844254
:1029000003D02146032005F007F80C4E042420468E
:1029100004F0E8FF56F8045BEDB2854229462046F4
:1029200004F1010401D004F0F7FF092CEFD170BDD0
:10293000B0A0FF1F9CA4FF1F3C8DFF1F408DFF1FF9
:1029400038B5002004F0CEFF052801D0002038BDA6
:10295000012004F0C7FF0C4B0C4D1870022004F04E
:10296000C1FF0B4B1860032004F0BCFF094B013082
:1029700018600424204604F0B5FF0134092C45F802
:10298000040BF7D1012038BDB0A0FF1F408DFF1F01
:102990009CA4FF1F3C8DFF1F70B50F4E202404F137
:1029A0008005A4F12000082221463044144404F09C
:1029B000DBFFA542F5D1B5F5846F2C46EFD1074D6D
:1029C000A4F58460062221462844144404F0CCFF78
:1029D000B4F58A6FF4D170BDB09CFF1F348FFF1F18
:1029E0002DE9F843DFF858802027A7F1200545445A
:1029F00007F180092C463E1B0835301904F072FFA0
:102A000004F8010BAC42F8D108374F452546F1D107
:102A1000B7F5846FE9D1094D2C463E1B06353019B8
:102A200004F060FF04F8010BAC42F8D10637B7F5AB
:102A30008A6F2546F0D1BDE8F88300BF348FFF1FB1
:102A4000B09CFF1FF0B53A4C3A4D89B004F002FF3C
:102A500023680493049F236805930599364A2368E5
:102A600006933648364B1160002201211A71069EEA
:102A700007603448DA6083F82220A3F84020A3F8E6
:102A8000422083F84620198383F821102E601860B5
:102A900005F0A2FA2C49236807930B462B4A079DA1
:102AA00043F8045B10606C3122680392039A43F888
:102AB000042B8B42F8D1264B264F274D274A196805
:102AC0002748284B284E294C12683F682D68016022
:102AD0001A6008463760256009F034F909F026FCD1
:102AE000234B0B2218600C212248FDF7F9FC002132
:102AF0002148FDF76BFD052206238DE80C001F49D8
:102B00001F4B204A204801F055FF204A20491E480B
:102B100008F084FC52230E221B211E4802F0CEF93D
:102B20001A4A1D491B4808F079FC09B0F0BD00BFE6
:102B30002CAAFF1F509CFF1FA4A3FF1FECA1FF1F87
:102B4000F4A1FF1FFCCF0000CCA0FF1F9CA3FF1F20
:102B5000548DFF1F408DFF1F84A4FF1F98A4FF1FEB
:102B600040A1FF1FA0A3FF1F5C9CFF1F8C9CFF1FA9
:102B7000609CFF1FB4A0FF1FA8A3FF1F648DFF1F51
:102B8000348DFF1F8C8EFF1F64A2FF1F0C8DFF1F53
:102B9000ED490000189CFF1F614C000030B5124C3D
:102BA00083B0002201210A2320460191009311469F
:102BB000802302F04DFF0225202320461946009570
:102BC000002203F0BDFF2046009520230022402173
:102BD00003F0B6FF0095204620230022602103F079
:102BE000AFFF03B030BD00BFA09AFF1F2DE9F04F2B
:102BF000984C05460F4694E80F008FB002AE0DF1D9
:102C0000280886E80F0088E80F0000230793069342
:102C100008930993082D00F20682DFE815F06100A1
:102C20008601F100610178009D00BA00D80009001A
:102C3000894A8A4B15681A6889498A488A4B51F82B
:102C400025101B6802EB0512013110F832200791A4
:102C500002F07F02854908920433013584480993C4
:102C6000844A854B02910695039004928B46059306
:102C7000824CDFF868A204F1080001214FF000093E
:102C800002F038FD04F108007D4902F043FDA4F88C
:102C90004090A4F8429084F84690FFF77FFF4946A1
:102CA00004F1080002F040FD04F10800012102F0E7
:102CB0003DFD01244FF00A09DAF80020CDF800901C
:102CC000023A21B2584612B22023FFF77BFB612C57
:102CD00004F1200400F04281A4B256F804BFEBE7EF
:102CE000614A684B15681B686749684A0793624BDD
:102CF0000968127808910435654909920293654A7A
:102D000006959B465B4B039104920593B0E7524AAC
:102D1000524B12681B685349534803EB021301EBF3
:102D2000C30211F8335093785178026851480290E9
:102D300003F00F030133043209934F4B079205F060
:102D40007F0501F07F01544A0393544B0695089187
:102D50000492834605938BE73F4A514B1568514ACD
:102D600005EB4501126813F81130089203F00F01CA
:102D70001B0901310133079109933C49474B4A4AEA
:102D800003930135494B069502918B4604920593B6
:102D90006EE7314B424A1B684549029103EB4303FE
:102DA00002EB43038B465A789B784249039102F029
:102DB0000F051209079203F00F021B090135089253
:102DC00009933D4A3D4B06950492059350E7224BEB
:102DD000334A1B683A49029103EB430302EB430376
:102DE00038481A79384B039302F00F026FF07E05D2
:102DF00050F8222004938B460A920593069537E7F4
:102E0000154B274A1D683148314C405D05EB4503A1
:102E10005B00D118D35C0A792A49039402F00F02AF
:102E200003F00F03013351F822100793104B0F4AA0
:102E30000C910135274904936FF07E0306950292A9
:102E4000059108930993002800F0F180224B0D931F
:102E500093460DE72CD000009CA4FF1FBCA3FF1FCE
:102E6000C4A1FF1FB09CFF1F98A4FF1FB4D0000097
:102E7000F4D00000C8D00000B0D00000F4A1FF1FC3
:102E80006C0E01003C8DFF1F8C9CFF1F99A3FF1F40
:102E9000D0D00000D4D0000040D1000008D1000004
:102EA000348FFF1FF0A1FF1F0CD1000010D10000D4
:102EB000B8D0000018D100001CD1000024D10000BF
:102EC000C0D00000508EFF1F2CD100001C8FFF1FB0
:102ED000ECD00000FCD0000000D10000988EFF1F55
:102EE000554A564B11681A68554B5648029002EBEA
:102EF000011203EBC2025448544B5549554C039000
:102F000005930332049100236FF07E0012F9011B38
:102F10000029C0F2828006AD45F823100133042B4E
:102F2000F4D1069DDDF808B0A2E6434A4A4B156885
:102F30004A4A4B491B68127807934A4B4A4C0892FD
:102F400003934A4A4A4B0868029401350695049255
:102F5000059309F0C5F9A346099089E60121454882
:102F600002F0C8FB4449434802F0D4FB0121414828
:102F700002F0DAFB00213F4802F0D8FB032F0DD806
:102F8000DFE807F02B203602152201238DE80C0024
:102F900062211D230B22394802F05AFD06AE00249F
:102FA0003B1BB3FA83F35B0915F17F0F21B228466F
:102FB0001A4628D00134FFF725FB042C2AD056F8F6
:102FC000045FEDE7152201238DE80C0022211D236B
:102FD0000B222A4802F03CFDE0E7152201238DE890
:102FE0000C0002211D230B22244802F031FDD5E7FD
:102FF000152201238DE80C0042211D230B221F48BE
:1030000002F026FDCAE758F824000134FFF756FA0B
:10301000042CD4D10FB0BDE8F08F06A948F82340A6
:1030200041F823007AE7DDF808B0002520E6144BCC
:103030000D9393461CE600BF9CA4FF1FBCA3FF1F7B
:10304000B09CFF1F30D1000034D100003CD1000003
:1030500038D100002CD10000649CFF1F61A2FF1F2B
:10306000548DFF1FD8D00000B4D00000E0D0000085
:10307000E8D00000FCA1FF1F84FC0000A09AFF1F05
:1030800004D100002DE9F04F6248A1B001F0B6FC78
:1030900004F0A2FF604B186004F09EFF5F4B1C68B9
:1030A0001860041B04D05E4B1B78002B40F00A8391
:1030B000FFF742F85B4803F069FCFEF75BFA5A48F9
:1030C000FDF72AFA03B21890002B35D1574B049321
:1030D000574B0893DFF890B1564B574D0393574B1E
:1030E0000293574E574B05935748FDF781FA012835
:1030F0004CD0022800F08081544B0B93544CDFF8E5
:103100006C91DFF81CA1434801F032FD002800F06B
:10311000CC80404801F038FDC0F30722D3B2012B28
:103120005FFA80F800F0A2812A78032A00F22F8249
:10313000DFE802F09E4C4C9EBDF96240454A04FB1C
:1031400003F4127804EB84041C44002A00F07B8111
:10315000414A3649137804911C4435490891DFF8F7
:1031600008B13449039184F302041470FFF7FEF9A7
:1031700001238BF80030314B02933348314B0593D8
:10318000FDF736FA01282C4D2D4EB2D1324A2B785C
:10319000127829489A4200F073832E4C2178002936
:1031A00040F00883294A0B9213B1032B40F072833D
:1031B0002A490B682A4A013382FB0320DA17C2EB43
:1031C000600202EB82029A1A0A6038E1002B9AD15F
:1031D000B8F1000F59D0029B1B781BB9039B1B78D9
:1031E000002B52D0D9F80030002B4EDD9AF8003079
:1031F000002B00F0FD82039B1B78002B45D0194F5C
:103200003B78002B41D03068FEF77EFD00233B70F9
:103210003BE000BF64A2FF1F9CA3FF1F6C9CFF1F2D
:10322000309CFF1FA09AFF1FB4A0FF1F8A9CFF1FA6
:10323000A89CFF1FB1A0FF1FB0A0FF1F549CFF1F41
:103240009CA4FF1FBCA3FF1FA8A3FF1F4AA4FF1F2E
:10325000349CFF1F60A2FF1F889CFF1F588DFF1F1B
:1032600067666666689CFF1F40A2FF1F5CA2FF1F87
:10327000002B7FF448AFB8F1000F40F08C81964BE3
:1032800041461A681920FDF705FB944A944B1268D1
:103290001A921A9A43F828209248002304F808301A
:1032A00001F066FC00287FF434AF2B786578019537
:1032B000A5780795089D06932D781795039D33688B
:1032C0002D780C95059D884A2D680D95049D1768ED
:1032D0002D781395854D81492D781295029D119079
:1032E0002D7814951E019BF8005010950E961590A0
:1032F00016900F900A90069A794D0990034602F1B4
:10330000FF388C4642F20E7E0097E25C002A44D0E1
:103310000E681B961B9E55F823A00098CAEB060961
:1033200048454FEA830638D8DCF80090CDF8709015
:10333000DDF87090CAEB090AF2452ED8B8F1010FFA
:1033400024D8019810BB079800BBA3F10309B9F179
:10335000070F40F294870A2B18DD0C98B0B90E9F26
:10336000A3F10B000D903818614F07EBC000807877
:10337000C0F30110012840F20C82099214921192BC
:1033800012921592139216920F9210920A681D9241
:103390001D9AA2F51C520F3AAA5101331B2BB4D12E
:1033A0000A9B0998002B40F0B7860F9B002B41F039
:1033B0002980169B1BB1059B1A460D9B1360159B1C
:1033C00023B1049B1A469DF84C301370119B1BB11E
:1033D000464B9DF848201A7020B1029B1A469DF872
:1033E00050301370069B032B00F27B87DFE813F04D
:1033F0008F074D074D078F07039B1B78002B00F0AD
:10340000FC8130683B4B3A4953F8204000220001D0
:1034100004F07F048318013211F8337064F3060757
:1034200001F8337001EBC303102A9F786FF3030791
:103430009F70EFD1304A314B0B9201221A70012359
:103440008BF800305AE62E4A04921278002A00F0D7
:1034500040812C4D2A78013A012A40F2C3822A4B3E
:10346000DFF8B4B00893294B039338E604F808203A
:10347000B8F1000F22D1264B1B78002B40F08F8033
:103480002B78032B3FF63FAEDFE803F09502029561
:10349000049B1B78002B00F0ED80029B1B7823B16E
:1034A000059BC9F80080C3F80080029900230B70C7
:1034B000049901220B708BF8002024E62B78032B53
:1034C0003FF621AEDFE803F0022A2A02114B404604
:1034D0001968FEF751FC16E63C8DFF1F2CAAFF1F52
:1034E000CCA0FF1F64A2FF1F848DFF1F899CFF1FBC
:1034F000B09CFF1F688FFF1F4AA4FF1F8CA3FF1FF4
:103500008A9CFF1FB0A0FF1FA89CFF1FB1A0FF1F38
:1035100060A2FF1F288FFF1F40A2FF1FB8F1000FFE
:10352000B6D0BB4BBB4A1B681993049B19991B78F7
:1035300042F82810A8F10B02002B48D0029BB64994
:103540001B78002B00F00E81059BB4491B68326884
:10355000B348B44F096850F82800C9F8008003EB5D
:10356000021301EB410117F833E000EB810161F335
:10357000060E07F833E09AF80000AB4B00211970F3
:10358000002800F0758301238BF80030BBE5002B89
:103590003FF47BAEB7E54046FEF72AFC75E6FFF741
:1035A00087F9FFF7F9F90C21A04805F073FFA0484F
:1035B00006F036F964E79F4B64211A681920FDF77D
:1035C00069F99D4A137883F0010313709BE508990C
:1035D0000978002900F0988008F1FF3101297FF671
:1035E00092ADA8F10307072F00F27182617837606E
:1035F000DFF88482914A002900F0B1839278002A92
:1036000000F028848E4ADFF81CE252F8272001954A
:1036100002F07F0C3A010EEBC7110092FF20009AD6
:103620001A4464251EF832706CF306070EF83270E7
:103630000EEBC2020133977892F8018007F0F00791
:1036400065F306086FF30517102B82F80180977059
:1036500001F1080101F8050C01F8040C01F8030C54
:1036600001F8020C01F8010CD9D1764B019D012221
:103670001A7588E7089B744A1B78002B3ED1039B80
:10368000724A1B78002B39D163786C4A002B40F0CA
:1036900039829378002B40F0F7829AF80030002BA3
:1036A00000F08A836A488AF8008001F009F9694BC2
:1036B0008AF80080C3F80080FDF742F8644801F002
:1036C000FFF820E52046FDF7F9FE2046FDF70CFF48
:1036D000EEE45D4A08921278002A40F005815B4AC8
:1036E000039212785C4D002A00F004822B78013B93
:1036F000012B40F2E782DFF884B1F0E4012382F885
:1037000000808BF80030FEE4039B19784F4B0029B2
:1037100000F04481414B326850491B6851F822E067
:103720003F49404851F82810C9F8008003EB430393
:103730000093059B0EEB0217C3F800E0009B10F806
:1037400037C001EB83039AF8001063F3060C00F80E
:1037500037C0002900F02C82414A012313708BF8F6
:103760000030D0E408F1FF33012B7FF6CCACA8F198
:103770000307072F40F2A581B8F10A0F7FF7C3AC0A
:1037800005980260284A012313700B708BF80030F3
:10379000B9E40E9F0992B9460D9FB944214F07EB3A
:1037A000C90980F0010099F802A060F3051A89F8B0
:1037B00002A0E3E527492B4B027000270F601F7022
:1037C000FCF7BEFF224801F07BF8B9B20022264880
:1037D000013701F089FB1B2FF7D1244B0B931946BE
:1037E0000122002323700A70FEF7C0FE2B78DBE471
:1037F00031684046FEF778FBFDE41D4A1D4B2978F1
:10380000117001221A70194B0B93FEF7AFFE16E6EA
:103810002CAAFF1FCCA0FF1F549CFF1F98A4FF1FC2
:103820003CD00000B09CFF1F899CFF1F44D10000CA
:103830006C91FF1F3C8DFF1F98A3FF1F349CFF1F3F
:10384000688FFF1F888DFF1FA89CFF1FB1A0FF1F5F
:10385000A4A7FF1FC0A3FF1FB0A0FF1FC4A1FF1F8D
:10386000689CFF1F309CFF1F189CFF1F4AA4FF1F6E
:10387000889CFF1F60A2FF1F9CA4FF1F40A2FF1F88
:10388000AB4A117800293FF48DAC0021A9480B9078
:10389000117089E4013B012B3FF6D1AD049B1B78ED
:1038A0008BB1029B1B7873B1089B1B78002B40F0F7
:1038B0002F81A14B1B68012B00F05883002B7FF454
:1038C000BEAD9E4975E4089B1B78002B40F020811B
:1038D000039B1B78002B40F06482994B1B68002BE4
:1038E00040F05982974964E4974D2A78013A012AB9
:1038F00000F2E480DFF8AC82D8F80000042800F081
:103900009982002840F05C82904E91483268914B39
:10391000224482F3030232601B688BB931688E4BFC
:1039200001EB410103EB41010A7902F00F0323444B
:10393000062BA8BF062323EAE37363F303020A718D
:103940000768002F40F0D1813068834B4FEA400E6A
:103950000EEB0002520099189A5C497801F00F01B1
:10396000091902F00F0200F174838A42A8BF0A46C7
:1039700002F00F02704403EB4003DFF830B25978D5
:103980007648039062F303015970754B0293754BAF
:10399000059301238BF80030FFF7A6BB08F1FF3138
:1039A00001297FF6B0ABA8F10307072F00F2C08111
:1039B00062782AB19AF80080B8F1000F00F0D9823D
:1039C000A378002B7DD0644B07EB470703EB47023E
:1039D0005379C3F3000181F0010161F300035371D6
:1039E000FFF791BB604A08921278002A82D15B4AA5
:1039F00003921278002A40F06581594A02921278A7
:103A00001AB35A4A1068032800F2A882002B554BBB
:103A10004E4E0593C0F27583484B1B68002B40F057
:103A20002283059B32681B685149DFF880B103EBA4
:103A3000021211F8323003F07F00044484F30704CB
:103A400064F3060301F83230A3E74A4F3E6820468C
:103A500008F02CFA314608F075F94749044608F099
:103A600017FC00285CD0444C444B314620461C6077
:103A700008F004FC002840F00181204640493C60E9
:103A800008F068FA01463F483F4CDFF820B12F4E5E
:103A900008F014FB08F04AFC3C4B3D4A18601B68D8
:103AA00003EB43039B001360106808F0FBF93949EE
:103AB00008F050FA2B4B206005936AE7DFF8ECB072
:103AC000D1E4012337608BF80030FFF71CBBB8F15D
:103AD0000A0F7FF718AB33681F4903EB4303012735
:103AE00011F813008BF8007062F3030001F8130063
:103AF000FFF709BB2A78032A3FF6FDADDFE802F0A5
:103B00008287875E2449254A01230B7013773AE5A3
:103B1000234B1B68002B40F0CC802249FFF749BBA8
:103B20002149204608F0D2FB00289DD01E4C9BE77F
:103B300060A2FF1F4AA4FF1FE4A1FF1F608DFF1FAB
:103B4000709CFF1F888FFF1FB0A0FF1F9CA4FF1F4A
:103B5000DC8DFF1FE08DFF1F348FFF1FB1A0FF1F03
:103B6000549CFF1FBCA3FF1FA89CFF1F248FFF1F97
:103B7000B09CFF1F548DFF1F0000204240A1FF1F7B
:103B800000004042C0E1644C88A3FF1F44A2FF1F15
:103B900044A4FF1F6F12833A648FFF1F888DFF1F9D
:103BA00080A4FF1FD88DFF1F0000964340A2FF1F77
:103BB000B64B40461968FEF741F9CDE5B44E326880
:103BC000042A00F05481DFF818B301238BF8003089
:103BD000012A3BD0002A45D1AE4BAF491A68AF4EFF
:103BE0001444042CA8BF04246FF004008442B8BF1E
:103BF000044694420C6036D0A94A1C60A94B02923C
:103C00000593C6E6A24BDFF8D8B21A68E0E7A64BE8
:103C10001868A64B04281B6800F0D5819F4E002B26
:103C200040F0BE813368234483F3030333600028EC
:103C300040F0DA8133689A4ADFF8A4B20292234452
:103C400083F303033360974B0593A2E6984B1968FF
:103C50000C44002C03DD102C2246A8BF10228A42FF
:103C600000D01A608D4E8E4B02938E4B059390E6DA
:103C7000864B40461968FEF7E1F884E4894BDFF88B
:103C800060B2864E059384E631688A4B01EB4101B0
:103C900003EB41010B7983F08002D20962F3C71371
:103CA0000B71854B002A00F0CD80012283F82C2077
:103CB00069E4012B00F0CB80022B7FF4C0AB7F497D
:103CC000FFF777BA734B74491A681444042CA8BFE1
:103CD00004246FF004008442B8BF0446A2420C6082
:103CE00000D01C60DFF8F8B1BCE7012F40F08780FE
:103CF0003168704B4F007A18520098189A5C4078DF
:103D000002F00F0214EB101002F1010200F18581A4
:103D10008242A8BF024602F00F02394403EB41037E
:103D200067485978DFF8B8B1039062F307112BE6C2
:103D3000B8F10A0F7FF7E7A93168624B02EB011275
:103D400003EBC2029378C3F3011101293FF6DBA90B
:103D500081F0010161F305139370FFF7D4B99378F3
:103D6000002B3FF410AC57485749802200EBC71096
:103D700003F0F4FA504B5548012207211A7305F05D
:103D800089FBD8F80010524805F09AFD504805F01C
:103D900047FDFFF7F8BB012B7FF451AB4349FFF719
:103DA00008BA3068FDF7B0FF32684A4B53F822304A
:103DB000059A1360FFF743BBFEF7A6FAFFF7A3B916
:103DC000012840F08F80354E3A4B31684800421848
:103DD00013F8122002F00F0201322244002A53DDB0
:103DE000102AA8BF1022013A02F00F020144490034
:103DF00039485F5C62F303075F54304B8CE5022F58
:103E000040F00D8131682B4BDFF8D4B001EB41015C
:103E100003EB41018B7803F00F02144484F3040494
:103E200064F303038B70264B03931D4B02931D4BCE
:103E30000593AEE528480368042B00F0E580174E93
:103E40001E4B69E5012283F82420FFF79CBB224921
:103E5000FFF7AFB91B491C4801EBC711802203F0E3
:103E60007DFA154B1D48012206211A7187E7002BA8
:103E7000C0F23F813FF4A7AE0D4B7F211A681C2092
:103E8000FCF708FD32689EE60022AFE7288FFF1F8F
:103E9000588DFF1F98A4FF1FA0A3FF1F9CA4FF1F06
:103EA000549CFF1FBCA3FF1F888FFF1F888EFF1F1E
:103EB0003C8DFF1F348FFF1F888DFF1FE08DFF1F7C
:103EC000B1A0FF1FB09CFF1F9C8EFF1F5CD10000A4
:103ED0006C91FF1FC4A1FF1FDC8DFF1F54D1000098
:103EE00040A2FF1F022840F00281AE4FAE4E3A685A
:103EF000002BACBF01214FF0FF310A4402F10F0348
:103F00001E2B3A6005D83068FEF71AFAD8F8000080
:103F10003A683368A54903EB430311F8133003F003
:103F20000F030133C3F10101914274DC013B934261
:103F3000A8BF13463B60032840F0218133689B4FA4
:103F40009B4803EB43035B00FA5C04EB121181F323
:103F5000040161F30712FA54964BDDE40428964BF2
:103F600079D0964A904E1B68059257E59449FFF721
:103F700020B91A219348009305F08CFA39469248EB
:103F800005F09EFC904805F04BFC9049009B376083
:103F9000012241F827801A708BF80020FFF7B3B890
:103FA000012B00F0D380022B00F0BD80032B7FF4A7
:103FB0003EAE874932688B5C234483F3010303F0F0
:103FC00001038B5433E6042B7FF428AE814ADFF8DB
:103FD00024B21368744E234483F3010313607E4BB1
:103FE0000293764B0593D4E4012800F075820228F1
:103FF00000F00E82032800F0FF80774B02936F4B96
:10400000DFF8F0B10593C4E46A4B1A68042A00F0A3
:10401000BA80654E80E40B468CE700227DE6032FD4
:1040200040F079823268614B6C49039102EB4202A5
:1040300003EB4202DFF8BCB1937804EB131484F372
:10404000020464F307139370634B02935B4B059375
:104050009FE43A468EE41B68042B00F05F82574AC7
:10406000514E0592DAE4012B12D15D4B5D491A687D
:104070001444042CA8BF04246FF004008442B8BF89
:104080000446A2420C6019D01C60DFF868B180E4DD
:10409000022B16D1059B32681B685349DFF854B1D7
:1040A00003EB021301EBC3014B7803F07F021444CE
:1040B00084F3070464F306034B706AE4DFF834B159
:1040C00067E4032BFAD1059B32681B684649DFF889
:1040D00024B103EB021301EBC3018B7803F00F0251
:1040E000144484F3040464F303038B7051E42E4EF0
:1040F00021E73E4B00211A681C20FCF7CBFB3268FD
:1041000061E532681B68384903EB021301EBC30118
:104110000B18FF22DA707FE4089B1A469DF85C308A
:104120001370FFF742B93168204B01EB410103EBFB
:1041300041010A7902F00F032344062BA8BF06238E
:1041400023EAE37363F303020A7170E53168174BE6
:104150004F007A1813F8122002F00F0201322244A5
:10416000002A1CDD102AA8BF1022013A02F00F021B
:10417000394449005F5C62F303075F5457E50C481C
:104180000C4BFFF7C9BB1A49074E0A682244022AA2
:10419000A8BF022222EAE2720A60FFF7BDBB00223A
:1041A000E6E700BFF0A1FF1F9CA4FF1F348FFF1F95
:1041B000DC8DFF1FE08DFF1F608DFF1FBCA3FF1F65
:1041C000248FFF1F64D100006C91FF1FC4A1FF1F4B
:1041D0001C8FFF1F709CFF1F549CFF1FB1A0FF1F6F
:1041E00098A4FF1FA0A3FF1FB09CFF1F3C8DFF1FC3
:1041F00080A4FF1F40A2FF1F954FD7F800802046E4
:1042000007F054FE414607F09DFD9249044608F030
:104210003FF8002831D19049204608F057F800B106
:104220008D4C8E4B414620461C6008F027F8002834
:104230007FF4E3AE20468A493C6007F08BFE0146DE
:104240008848894CDFF854B207F038FF08F06EF860
:10425000864B874A18601B6803EB43039B0013607F
:10426000106807F01FFE834907F074FE824B02932B
:10427000824B20600593FFF78CBB764CD1E70F9201
:1042800010920A921792FFF781B87D4B1B78002B92
:1042900027D17C487C4903681E937C4A1E9B096891
:1042A00012685B1A9A424FD203681F931F9B143205
:1042B000591A8A4248D901238BF80030049B1B7895
:1042C000002B58D0724B1B68002B6FD0012B00F0D5
:1042D0008180089B1B78002B43D1039B1B78002B0C
:1042E0005DD19BF80030DBB90B9B6A4C1B7813B394
:1042F000694800F019FD00232370FCF731FAD0B9AA
:10430000FCF74EFF0028FBD121B0BDE8F08FFDF790
:104310000FFA9BF80030614C43B1594B1878C0B18B
:104320005F4802F03FFC00238BF800300B9B594C98
:104330001B78002BDCD1FCF713FA0028FBD1FCF72B
:104340002FFF0028DCD1DFE79BF80030002BEDD0F9
:10435000B4E7544B1968FEF749FC2378002BC3D00F
:10436000DEE7514B1B684BB3012B39D0022B3DD0FC
:10437000FEF7BCF8B1E7089B1B78002BF1D1039B3B
:104380001B78002BA9D1494B1B68EBB1012B33D013
:10439000FEF7ACF8049B1B78002B9AD092E704211F
:1043A0000820FEF723FCFEF7A1F89AE7404B042013
:1043B0001968FEF71BFC089B1B788CE73D4B05201A
:1043C0001968FEF713FCD3E73B4B01201968FEF791
:1043D0000DFCDDE7394B03201968FEF707FC78E791
:1043E000374B06201968FEF701FCC1E7354B072063
:1043F0001968FEF7FBFBBBE7334B02201968FEF799
:10440000F5FBC5E79DF840308BF80030FEF7D1BFD3
:104410002E482F4B02781B78121979D49342A8BFEB
:104420001346DCB203F0070332682A49047002EB3A
:10443000420201EB4202DFF864B0117963F3061126
:104440000D4B02930D4B11710593FFF7A2BA00BFFC
:10445000548DFF1F000020420000964340A1FF1F23
:1044600000004042C0E1644C88A3FF1F44A2FF1F2C
:1044700044A4FF1F6F12833A549CFF1FBCA3FF1F6D
:1044800060A2FF1F2CAAFF1F509CFF1F948EFF1FCE
:10449000E4A1FF1F4AA4FF1F189CFF1F40A2FF1F9B
:1044A000A09AFF1F588DFF1F80A4FF1F709CFF1F45
:1044B000608DFF1FD88DFF1F888FFF1F248FFF1F68
:1044C000DC8DFF1FE08DFF1F888EFF1F61A2FF1F85
:1044D0002C8FFF1F348FFF1F3068174900015FFAD0
:1044E00084FC002200EB020E013211F83E30C3F3CF
:1044F0000607674467F30603102A01F83E30F1D13E
:104500000E4ADFF848B01368234403F3060365E559
:1045100000231C4688E7DFF834B084E4084ADFF85B
:104520002CB01368074E234483F301031360064B3A
:104530000593FFF72EBA00BFB09CFF1F649CFF1FBE
:10454000E4A1FF1F9CA4FF1FBCA3FF1F40A2FF1FED
:1045500070B5184D82B0284602F018FAB5F90C1063
:1045600001291FDD0022012694B2630068890196AB
:104570009BB2C91A09B2C31A1BB200910D48114669
:1045800001F0E8FA0B4802F00DFB012003F046FDB4
:10459000B5F90C10023401EBD17322B243F34F038F
:1045A0009342E1DC4FF4FA7002B0BDE8704003F0D2
:1045B00035BD00BFA09AFF1F2DE9F0477E4A7F4B13
:1045C00012687F4D7F4C804F804E82B00192019ADD
:1045D0001A6003F001FD7E4B186003F0FDFC7D4A7C
:1045E0007D4B10607D49186807F0B4FC01467C489B
:1045F00007F064FD07F09AFE7A4B7B4A18601B684F
:1046000003EB43039B001360106807F04BFC7749F2
:1046100007F0A0FC286003F0DFFC206003F0DCFC66
:10462000734BD4F800E018600225002303EB43022B
:1046300006EB420207EB03111479C1F804E00133E1
:1046400065F30304082B14718860EFD10D2003F08B
:1046500031F80024DFF8D481664FDFF8D4A14FF0A1
:1046600084492646382005F03BF9604B01220021A1
:10467000054600F01BFD4AF8246001344FF4005356
:10468000052C48F8045BC5F8109047F8046B6B6084
:10469000E8D1FBF7EFFF0121172003F097FC564C00
:1046A000564D0C231846237003F06CFC207806F05E
:1046B000FDFF02460B4600204FF0804105F0F6FD5D
:1046C00007F01AFB4E4B28804022002128201A6058
:1046D00003F05AFBFEF734F9002869D149494A4AE8
:1046E0004A4B4B4F08704FF0010E15261625172424
:1046F000106018210722C7F800E01E605D609C6012
:10470000D9601A61FEF76CF8424C434DFBF7D2FEBC
:104710002846A56002F03AF9FFF71AFFC82003F017
:104720007DFC284602F032F904F10800012100F076
:10473000FBFF002104F1080000F0F8FFFDF7AAFFDD
:10474000364800F0E3F9364800F09AFA344800F0B1
:10475000EBFA3221324800F06BFC0024A1B2314A5E
:104760002F4800F0C1FB2E4800F0DEFA013405208E
:1047700003F054FC1B2CF1D10520FDF761FF4FF431
:10478000FA7003F04BFC002223461146244800F047
:10479000B1FB234800F0C8FA642003F03FFC1E4838
:1047A00002F000FA204B01221A7002B0BDE8F08737
:1047B000FEF716F9A8E700BF2CAAFF1F509CFF1FA9
:1047C00088A3FF1F7CA4FF1FC4A3FF1F348FFF1FFC
:1047D0009CA3FF1F6C9CFF1F548DFF1F00004042D5
:1047E000C0E1644C44A2FF1F44A4FF1F6F12833A30
:1047F00084A3FF1F64A4FF1F38A1FF1F48A4FF1F4D
:10480000AC9CFF1FB0A0FF1F9CA4FF1F408DFF1F8B
:104810003C8DFF1FF4A1FF1FA09AFF1F64A2FF1F82
:10482000189CFF1F8080800040A2FF1F909CFF1FEC
:104830004CA4FF1FF0B400259DF810702C4602E038
:104840000134202C10D0465D1435002EF8D104EB35
:104850008404A400061901250555284671603361BA
:10486000B2603773F0BC70470020F0BC704700BFE7
:10487000F8B50E4600F1100400F52475002702E09B
:104880001434AC4215D014F8103C002BF8D0236837
:10489000B342F5D854F8082C54F80C0C0021FBF75F
:1048A000D1FF14F8043C2BB904F8107C1434AC424A
:1048B000E9D1F8BD0021172003F074FBF4E700BF35
:1048C0004FF0FF31FFF7D4BFF0B400259DF814700E
:1048D0002C4602E00134202C12D0465D1835002E03
:1048E000F8D104EB4404E400061901250555716074
:1048F000049971612846B360F2603774F0BC704768
:104900000020F0BC704700BF2DE9F0410E4600F1D9
:10491000140400F54575002702E01834AC421BD0A2
:1049200014F8143C002BF8D02368B342F5D854F89F
:104930000C2C54F8081C54F8100CFBF75BFF14F80F
:10494000043C23B154F8100C1838352806D904F863
:10495000147C1834AC42E3D1BDE8F08107F0A6FA2C
:10496000084907F0F7FA05F07DFC01218046172081
:1049700003F018FB404607F0B3FC0146282003F083
:1049800003FAE4E790759242002308491A46CA5494
:104990001433B3F5207FFAD1002305491A46CA54CF
:1049A0001833B3F5407FFAD1704700BFA4A7FF1FAB
:1049B000A4A4FF1FF8B504460E46154600214FF487
:1049C000807210301F4608F01FF8069BC4F818319B
:1049D0000022079BC4F8102126606560A760C4F818
:1049E0001C31E260C4F814212046F8BD10B504461D
:1049F000C06808B107F048FD204610BD2DE9F84316
:104A0000D0F81C31002B7EDD04460025A36801216F
:104A1000585D03F0C7FAD4F81C310135AB42F5DC20
:104A2000002B6EDD0026B0460127A3680021985DAB
:104A300003F0B8FA4FF42073013BFDD1D4F81831DC
:104A4000002BC8BF4FF000092EDC4EE0990724D59B
:104A5000D4F81011D4F814010131C9B203F0FD03E8
:104A6000814243F0080306D0D4F81001204480F8B6
:104A70001080C4F81011D4F81001D4F814110130CA
:104A8000C0B2884209D0D4F8101104EB010E21689D
:104A9000495D8EF81010C4F810015355D4F8183140
:104AA00009F101094B4520DD6368D4F81C5113F866
:104AB000090003F07DFA05FB0965E268535DDBB28E
:104AC0000028C3D19807E8D4D4F81011D4F8140101
:104AD0000131C9B2814243F00603CCD0D4F81001B1
:104AE00020440774C4F81011C5E7A3680121985D3C
:104AF00003F058FAD4F81C310136B34295DCBDE816
:104B0000F883BDE8F883BDE8F88300BF70B5D0F83E
:104B10001851D0F81C610446012106FB05F007F08E
:104B200025FC002EE060C8BF002510DDA368012130
:104B3000585D03F04BFAA3680121585D03F032FA87
:104B4000D4F81C310135AB42F0DCD4F81851002DFB
:104B5000C8BF00250ADD63680221585D03F036FAFC
:104B6000D4F818310135AB42F5DC70BD70BD00BF23
:104B7000D0F81031D0F814011B1A4CBF03F5807027
:104B800018464010704700BFD0F81421D0F81031FB
:104B90009A4220D0D0F81421D0F8143102440133C5
:104BA000DBB2117CC0F81431D0F81421D0F81031E8
:104BB0009A4218D0D0F81421D0F8143102440133AD
:104BC000127CDBB2C0F814314FF0000062F3070032
:104BD00061F30F207047D0F81421D0F810319A42B9
:104BE0004FF0FF01E6D1FF224FF0000062F3070013
:104BF00061F30F20704700BF037AF0B5160C150A59
:104C0000F6B2EDB25FFA82FE5BB103FB06F603FB80
:104C100005F503FB0EFEC6F30726C5F30725CEF305
:104C2000072EC77C047CBC4214D0C46804EB81010D
:104C3000120E0F444BB9D3B23B70077CCE55437C68
:104C4000CD54837C01F803E0F0BD03FB02F3C3F312
:104C50000723F1E7C36801EB41011944EEE700BF08
:104C600010B50446C06807F00FFCB4F90600002830
:104C700003DBC0B2002103F0A9F9204610BD00BF3C
:104C800010B50446B0F90600002807DBC0B20121C8
:104C900003F09CF90021A07903F084F901236370EB
:104CA00010BD00BF38B50446C0680D4607F0ECFBE8
:104CB000E37C207C83420CBF0320042010FB05F022
:104CC00080B2A080012107F051FBE06008B165804F
:104CD00038BDA080608038BDF0B4077CC47CC56856
:104CE000C1F38106FF29A4EB0704C1F3811201F08F
:104CF00003074674B4FA84F48CBF00260126C1F37E
:104D00000111C27464098774067001744DB1511A9F
:104D1000B1FA81F14909A14203D04188F0BCFFF703
:104D2000C1BFF0BC704700BF2DE9F843C368002B3A
:104D300057D04569044603F04FF9854202D903F084
:104D40004BF9606103F048F96569401BB0F5967F47
:104D5000F1D372B64549B4F906500B684448454A48
:104D600050F83500E668A788257843F080730B601B
:104D7000136843F0010337441360A5B3A1F55D4107
:104D8000F8390A68BE4202F178021FD289464FF014
:104D9000010C16F8018B4FF0080E80250B689B1A4A
:104DA000772BFBD918EA050FD9F8002080F880C0CE
:104DB00053D00B689B1A4B2BFBD9BEF1010E80F828
:104DC00000C14FEA5505E9D1B742E2D12A490B6843
:104DD0009B1A772BFBD962B603F0FEF86061BDE841
:104DE000F883BDE8F88324490A68BE4202F1F00264
:104DF0001FD289464FF0010C16F8018B4FF0080EB8
:104E000080250B689B1AEF2BFBD918EA050FD9F800
:104E1000002080F880C017D00B689B1A722BFBD93A
:104E2000BEF1010E80F800C14FEA5505E9D1B74245
:104E3000E2D111490B689B1AEF2BFBD962B603F044
:104E4000CBF86061BDE8F8830B689B1A2F2BE7D87D
:104E50000B689B1A2F2BF7D9E2E70B689B1A172BCD
:104E6000ABD80B689B1A172BF7D9A6E7FCED00E02F
:104E700084200100001000E0041000E038B5437801
:104E80006BB10446B0F9060000280D4609DBC0B23C
:104E9000002103F09BF86378E5801BB938BDC18021
:104EA00038BDE180EDB22846012103F08FF8284695
:104EB0000021BDE8384003F075B800BF70B500258B
:104EC00004460E46457019460572C5604561154693
:104ED000FFF702FF31462046FFF7E4FE2046294651
:104EE000FFF7CCFF204670BD43888B4201D9FFF706
:104EF00083BE7047F8B514464288A24215D90646CB
:104F00000F469BB91546134604E00134A4B2AC42E7
:104F10000BD27388A342F8D9214601343A46304671
:104F2000A4B2FFF769FEAC42F3D3F8BDE518ADB209
:104F3000954228BF1546AC42E5D3F8BD40F2FA537E
:104F400003FB00F000F500400014B0F5FF7F10B443
:104F500022DAFE2844DDC0F1FE034C1CDBB204FB68
:104F600003F3C4EB04241B1224120020C943C9B26A
:104F700001320C440B44084402FB04F402FB03F32B
:104F800004F47F441B0202FB00F244EA122003F403
:104F90007F03184310BC7047B0F57F7F84B20DDAF1
:104FA000B4F53F7F26D8831C4C1CDBB204FB03F313
:104FB000C4EB0424181224120023D7E79C4225D006
:104FC00040F2FA439C4228D9C0F1FA004B1CC0B20F
:104FD00003FB00F0C3EB032300121B120024C5E700
:104FE0004B1CC0B203FB00F0C3EB032304121B12E3
:104FF0000020BBE7C0F1FC004B1CC0B203FB00F07B
:10500000C3EB0323041218120023AFE74B1CC3EBBE
:10501000032300201B120446A8E7031DDBB2481C33
:1050200000FB03F3C0EB00201B12001200249DE7DD
:1050300070B44E1C047AF6B2A64213D0013C14F0B0
:10504000FF04C56810D183882A4653B1137804FB46
:1050500003F31B1202F8013B531B81889BB2994258
:10506000F4D8067270BC7047FF2905D03302013BAB
:1050700093FBF4F4A4B2E6E74FF6FF7393FBF4F46A
:10508000E1E700BF10B483B002AB074C43F8040D56
:1050900002A91A78A25C03F8012B8B42F9D101987E
:1050A00003B010BC704700BF50D200002DE9F0479C
:1050B00004460F464FF4806100264FF08140616046
:1050C0005FFA87F801214FF0000920612175404601
:1050D0003146C4F8209084F8246092461D4602F0C0
:1050E00075FF3146404602F05DFF276084F80CA052
:1050F00028464FF07E5107F0E9F828B14FF07E5571
:10510000A5602046BDE8F0874946284607F0C0F86C
:105110000028F5D04D46A5602046BDE8F08700BFC9
:10512000037B2DE9F04704460D46002B41D0037D5B
:105130000846002B40F0988006F0B8FED4F81080A6
:105140000646A7693046394606F0FAFD00210546B5
:1051500007F0BCF8002800F0C880284607F0E6F801
:10516000266A81463146284606F0EAFD604906F087
:10517000F1FE314606F0E6FD00212062064607F00A
:10518000A5F8002800F0AE80414630464FF0010AF5
:1051900007F07EF808B94FF0000A84F824A04146D1
:1051A000304607F075F810B3384607F099F8BDE8B7
:1051B000F087A769084606F079FE394606F0C0FD7B
:1051C0000021054607F082F8002871D105F1004062
:1051D00007F0ACF8266A81463146284606F0B0FD55
:1051E000434906F0B7FE314606F0ACFD2062484662
:1051F00006F058FEA16806F0ADFE4FF07E5106F0B5
:10520000A1FD01464FF07E5006F058FF01464FF0D9
:105210007E5006F095FD014606F094FD4FF07E515C
:10522000064607F053F800284AD04FF07E50294632
:1052300006F090FE394606F085FD00263146A06155
:10524000054607F025F800283CD16068013806F0D3
:105250002DFE06460146284607F038F850BB284682
:1052600007F03EF8BDE8F08706F020FED4F8108085
:105270004146064607F00CF840BB6768384606F022
:1052800015FE414606F05CFD0146304607F01EF86B
:1052900000283FF456AFC7EB450006F007FE414635
:1052A00006F050FD07F01CF806F000FE064648E741
:1052B00028468DE7A661304607F012F8BDE8F08772
:1052C0003046B4E7A6610020BDE8F087680006F02C
:1052D000EDFD414606F034FD07F002F806F0E6FD6C
:1052E00006462EE706F100464EE705F1004035E799
:1052F000CDCCCC3EC36A10B504460363FFF710FF64
:10530000236BE0621B1A18BF012384F8343010BDF0
:105310004318405C5B7803EB002080B2704700BF0D
:10532000012B0BD007D3022B02D1801A00B2704799
:10533000401A00B27047104400B27047084400B2EF
:10534000704700BF012B0BD007D3022B02D1401AAC
:1053500000B27047104400B27047084400B2704772
:10536000801A00B2704700BFF0B40D780668AB1821
:105370003478DBB2072B44FA05F40AD9771C0760AE
:10538000C5F108057078EDB200FA05F5083B2C432D
:10539000DBB201209040E4B2013820400B70F0BC39
:1053A000704700BF10B50A460C4600F11001FFF728
:1053B000DBFF013C0123E4B203FA04F4001B40B21A
:1053C00010BD00BF70B505460023816005F8183F89
:1053D00000F10806044690F8202029463046FFF7E1
:1053E000C3FF2946A07594F821203046FFF7BCFF83
:1053F000E07570BD10B50B7803704B7843708B78F7
:105400008370CB78C3700B7903714B7943718B79BF
:105410008371CB79C3710B7A03724B7A43728B7AA7
:105420008372CB7AC3720B7B03734B7B43738B7B8F
:105430008373CB7BC3730B7C037402460C46084614
:105440001121FFF765FF132150822046FFF760FF0F
:10545000152190822046FFF75BFFD08210BD00BF70
:1054600070B49DF80C40BDF81050032C26D8DFE82E
:1054700004F01E170C02006804680395A46BD21A8E
:105480000132A44612B270BC6047006806680395FA
:10549000C3F101042144F46B09B2A44670BC604717
:1054A000006804680395A46BA44670BC604700685C
:1054B00004680395E46BA44670BC604770BC7047F9
:1054C0002DE9F04F87B005460F4690F8148090F80C
:1054D00015A005920DE06B7E002B47D0A7420AF184
:1054E0000103A7EB04043AD3E7B25FFA83FA4FF063
:1054F000000895F81A90B5F90E30AC7D03934FFA79
:1055000088F64FFA8AFB31464B465A46B5F90C00ED
:10551000FFF718FFC8EB0404E4B2A7420490314639
:105520004B463E465A4628BF26460398FFF7F8FEEC
:10553000002ED3D0059B002BCDD0B5F810E0CDF8D0
:105540000090334602460499CDF804E02846FFF760
:1055500087FFA7420AF10103A7EB0404C4D2474422
:105560002F7585F815B007B0BDE8F08FB5F812E0DB
:10557000E5E700BF2DE9F047044600F10805FFF715
:1055800021FF94F8221094F917902846FFF70AFF9C
:1055900094F8231007462846FFF704FF94F82410D8
:1055A00006462846FFF7FEFE94F91630002B824689
:1055B0003ADD4E4494F81A80B4F90C00764276B283
:1055C000324643463946FFF7BDFE3246A081434688
:1055D000B4F90E003946FFF7A3FE0023E0812375DE
:1055E000637504F11806A27F31462846FFF7BCFE1A
:1055F000E27F804631462846FFF7B6FE0746002286
:1056000041462046FFF75CFF012239462046FFF75E
:1056100057FF012231462846FFF7A6FE0028EED1AB
:1056200094F915304B45DEDB5046BDE8F08700BFEE
:1056300038B54368FF2903F1170310D8602932D821
:10564000402984BFC28D9B18587818B92AE00344BA
:10565000587868B31A788A42F9D1981C38BD428EBE
:105660001A440D46144610460021FFF751FE022150
:1056700004441046FFF74CFE854202F10402F2D8C2
:105680002078627852EA00200CD0854202D10DE0E9
:105690009D420BD0A3781C442078637853EA002302
:1056A000F6D1184638BD028E1344CDE7E01C38BD54
:1056B00038BD00BF38B50446FFF7BAFFC0B104F1EA
:1056C000080501462046FFF77DFE94F82210284683
:1056D000FFF768FE94F8231084F834002846FFF79B
:1056E00061FE284694F82410BDE83840FFF75ABE02
:1056F00038BD00BF4176704710B58181C28119461F
:105700000446FFF795FF20B101462046FFF732FF20
:1057100000B210BD42688A4205D000224160427644
:105720001C30FFF767BE70470182704741827047A7
:1057300019B94FF6FF710846704790F8463063B9C3
:10574000FB291ED9052301F0010180F84630A0F89D
:1057500044104FF6FE7108467047B0F8442001F03F
:105760003F0141EA8211013BDBB289B24FF6FE7282
:10577000A0F84410002B18BF114680F846300846A8
:105780007047F72905D9042301F0030180F846305A
:10579000DDE7EF2905D9032301F0070180F8463042
:1057A000D5E7DF2905D9022301F00F0180F8463043
:1057B000CDE7BF2905D9012301F01F0180F846304C
:1057C000C5E789B2B7E700BF00232DE9F0470646D9
:1057D0001C464D1E837780F846309A4600F1080833
:1057E0004FF6FF774FF6FE7915F8011F3046FFF7A9
:1057F0009FFF0346BB420146404608D04B45F3D0CD
:10580000FFF758FF044424B20FFA80FAECE796F948
:105810001E3033B196F93C0003441C44CAEB04002B
:1058200004B22046BDE8F0872DE9F04F85B09946D7
:10583000BDF93870BDF83CA0BB1AC1EB090B002BB9
:10584000B8BF5B42BBF1000FB8BFCBF1000B5B45AB
:105850000D4616460093804648DC4D453A46334691
:105860004CDC194613460A46C5EB09019B1A89B25E
:10587000002B0CB2B8BF5B4204EBD474BE42ACBF89
:105880004FF0FF3201224D45039102924FEA64042A
:1058900029DC9BB201930DE0D8F80070BF69B847CE
:1058A000019BE41AA3B21CB20135002C2DB211DB0E
:1058B000A94518DB009B5B452A46534631464046C6
:1058C000EADCD8F80020534697692946324640461C
:1058D000B847E5E7029A1644039AA94502EB030488
:1058E00036B224B2E6DA05B0BDE8F08F4A462B4660
:1058F000B94635464D4517461E46B2DD3046294667
:105900003E464D4607468946AEE700BF10B40468E0
:105910002469A44610BC604730B40468BDF8085040
:105920000295A46BA44630BC604700BF30B4046845
:10593000BDF808500295E46BA44630BC604700BF38
:1059400070B40468BDF90C60BDF81050039604955E
:10595000246CA44670BC6047704700BF10B582B08D
:10596000B0F90C2001910168009200220C6CB0F992
:105970000A301146A04702B010BD00BF704700BFFB
:1059800001F003010129017606D0032904D0C28861
:1059900003894281838170470289C3884281838160
:1059A000704700BF2DE9F0410568134E6F6986B05E
:1059B000B7420446BDF8308010D1013B13441BB2FE
:1059C0000093CDF804800B46AD6A2046A8472368B3
:1059D000DB6AB3420AD106B0BDE8F08105930492B8
:1059E0000391B84703A925680EC9E6E7204606B02B
:1059F000BDE8F041184700BF595900002DE9F041BA
:105A00000568124E6F6986B0B7420446BDF8308013
:105A10000FD1013BCDF804800B4400921BB2AD6A5C
:105A20002046A8472368DB6AB3420AD106B0BDE826
:105A3000F081059304920391B84703A925680EC924
:105A4000E7E7204606B0BDE8F04118475959000085
:105A50002DE9F04F0568DFF858B06F6985B05F45F4
:105A60000646BDF93890BDF83CA00C46904615D1CD
:105A70001F19BC420CDACDF800A0214601342D6A72
:105A80004B464246304624B2A847BC423568F2DB5A
:105A9000EB6A5B4507D105B0BDE8F08F0393B847CB
:105AA0003568039BE4E7304605B0BDE8F04F184782
:105AB000595900002DE9F04387B099420546BDF9D8
:105AC0003840BDF83C6025D0A24212D00768DFF80C
:105AD0008080D7F81490C14532D18DE85000284617
